:020000040800F2
:1000000020040020D5000008FB000008FD000008C7
:1000100000000000000000000000000000000000E0
:10002000000000000000000000000000FF000008C9
:100030000000000000000000010100085D0500084C
:100040000501000805010008050100080501000878
:100050000501000805010008050100080501000868
:100060000501000805010008050100080501000858
:100070000501000805010008050100080501000848
:100080000501000800000000000000000501000854
:100090000000000005010008050100080501000836
:1000A0000000000005010008050100080501000826
:1000B0000501000800000000050100080501000816
:1000C0000348854600F048F800480047D506000878
:1000D000200400200C4880F308880C480168090EB1
:1000E0000B4A914205D10B480B4901600B480C4962
:1000F00001600C4880470C480047FEE7FEE7FEE73A
:10010000FEE7FEE7FEE700002004002004000000F8
:100110001F00000018100240010000000000014014
:100120000000000025060008C100000830B50B469D
:10013000014600202022012409E00D46D5409D42C1
:1001400005D31D469540491B254695404019154647
:10015000521E002DF1DC30BD064C0125064E05E097
:10016000E36807CC2B430C3C98471034B442F7D3D8
:10017000FFF7AAFF000800082008000810B50B468A
:100180000021846A1C43846200BF0C46144321464C
:10019000416110BD002904D0826801231A438260A6
:1001A00003E0826802231A4382607047002A03D06A
:1001B00043680B43436002E043688B4343607047EE
:1001C00010B50022C268084B1A400C7964030B6812
:1001D00023438C682343CC6823430C6923434C6935
:1001E00023431A43C26010BD03D2FFFF00B589B09C
:1001F0000121480400F026F901200790032108A8F6
:10020000017000214170C170817007A90920C006EA
:1002100000F058F80121480200F024F90020019074
:10022000002168460172002003900490059006901A
:1002300001A90C48FFF7C4FF052201210948FFF777
:100240009DFF0C2001218140074A116000BF01225F
:1002500004210448FFF7AAFF01210248FFF79AFF93
:1002600009B000BD0024014000E100E01CB50121FF
:10027000C80400F0E7F80120400300900021684620
:1002800001714171C17181716946024800F01AF82B
:100290001CBD0000000800481CB50121880500F0C5
:1002A000D1F80120C002009000216846017141711F
:1002B000C17181716946024800F004F81CBD00005C
:1002C00000140048F0B50A4600210023002400BFB6
:1002D0003DE001258D402B4615681D402C469C4273
:1002E00034D11579012D02D01579022D16D18568EA
:1002F0004F000326BE40B543856055794E00B5409A
:10030000866835438560858801268E40B5438580A3
:10031000858896798E40B6B23543858005684F0052
:100320000326BE40B543056015794E00B54006680A
:1003300035430560C5684F000326BE40B543C56020
:10034000D5794E00B540C6683543C560491C1029B3
:10035000BFD3F0BD02460020138A0B40002B01D012
:10036000012000E0002070470185704781617047DF
:100370001CB50121480400F065F8074800900121F0
:100380006846017100214171C1718171694609207E
:10039000C006FFF797FF1CBDFE8700001CB50121BA
:1003A000880400F04FF80748009001216846017169
:1003B00000214171C171817169460348FFF782FFD5
:1003C0001CBD0000FFFF00000004004810B500281D
:1003D00019DA1A4A03071B0F083B9B089B00D258E7
:1003E0008307DC0EFF23A3409A438B071B0E840771
:1003F000E40EA3401A43114B0407240F083CA40841
:10040000A4001A5118E00E4A03231B02D2188308D5
:100410009B00D2588307DC0EFF23A3409A438B072F
:100420001B0E8407E40EA3401A43054B0324240249
:100430001B198408A4001A5110BD00001CED00E037
:1004400000E100E0002905D0054A52690243044B4F
:100450005A6104E0024A52698243014B5A61704773
:1004600000100240002905D0054A92690243044B5E
:100470009A6104E0024A92698243014B9A61704793
:10048000001002400CB50020019000903148006837
:100490000121090408432F49086000BF2D48006866
:1004A00001214904084000900198401C01900098E7
:1004B000002804D10521090301988842EED125487E
:1004C0000068012149040840002802D00120009062
:1004D00001E0002000900098012839D111201E4928
:1004E00008601C4840681B494860084640684860EE
:1004F000084640687F21C90388431649486008467A
:100500004068112109040843124948600846006800
:100510000121090608430F49086000BF0D48006823
:100520000121490608400028F8D00A4840688008A0
:100530008000084948600846406802210843054990
:10054000486000BF034840680C2108400828F9D1E2
:100550000CBD00000010024000200240044800884A
:10056000002804DD02480088401E014908807047C9
:1005700000000020F8B500250024002600272448AC
:1005800040680C2108400546002D04D0042D06D0FB
:10059000082D2AD107E01F481F49086029E01D489F
:1005A0001D49086025E01A4840680F218904084069
:1005B0000446174840680321C90308400646A00CBA
:1005C000841C002E04D115486043134908600BE0D9
:1005D0000F48C06A0007000F471C39460D48FFF757
:1005E000A5FD60430C49086003E00A480A49086019
:1005F00000BF00BF06484068F021084000090849D4
:100600000D5C05480068E84003490860F8BD00003B
:100610000010024000127A000800002000093D008E
:100620000C00002010B51B4800680121084319493F
:10063000086008464068184908401649486008465E
:1006400000681649084013490860084600680121FF
:10065000890488430F490860084640683F2109041F
:1006600088430C4948600846C06A00090001C86216
:100670000846006BFF215431884306490863084649
:10068000406B40084000486300208860FFF7FAFE96
:1006900010BD0000001002400CB8FF08FFFFF6FE7E
:1006A00002E008C8121F08C1002AFAD1704770473B
:1006B000002001E001C1121F002AFBD17047000099
:1006C0000349088000BF024909880029FBD170470F
:1006D00000000020FFF74EFF7D21C900434800685D
:1006E000FFF724FD0446601E4149884200D90CE012
:1006F000601E404948610321081FFFF767FE002084
:100700003C4988610720086100BFFFF731FEFFF711
:1007100045FEFFF7ABFDFFF7BFFDFFF767FD63E0A9
:10072000012149033448FFF715FE01282ED1FF208F
:10073000F530FFF7C5FF80213048FFF717FE012194
:1007400049022E48FFF712FE40210920C006FFF79C
:100750000DFE012189022948FFF708FE0821092022
:10076000C006FFF703FE20210920C006FFF7FEFDAB
:1007700080210920C006FFF7F9FD01211F48FFF77E
:10078000F5FD02211D48FFF7F1FD2DE0FF20F530BA
:10079000FFF796FF80211948FFF7E6FD0121490286
:1007A0001648FFF7E1FD40210920C006FFF7DCFDF8
:1007B000012189021148FFF7D7FD08210920C00651
:1007C000FFF7D2FD20210920C006FFF7CDFD8021D3
:1007D0000920C006FFF7C8FD01210848FFF7C4FD46
:1007E00002210648FFF7C0FD9AE70000080000203C
:1007F000FFFFFF0000E000E00008004800040048A0
:1008000020080008000000201C000000A0060008CE
:100810003C0800081C00002004040000B00600088A
:10082000000000000000000000127A00000000003C
:0C08300000000000010203040607080994
:04000005080000C12E
:00000001FF
